{
  "_format": "hh-sol-artifact-1",
  "contractName": "Nft",
  "sourceName": "contracts/Nft.sol",
  "abi": [
    {
      "inputs": [
        {
          "internalType": "string",
          "name": "name",
          "type": "string"
        },
        {
          "internalType": "string",
          "name": "symbol",
          "type": "string"
        }
      ],
      "stateMutability": "nonpayable",
      "type": "constructor"
    },
    {
      "anonymous": false,
      "inputs": [
        {
          "indexed": true,
          "internalType": "address",
          "name": "owner",
          "type": "address"
        },
        {
          "indexed": true,
          "internalType": "address",
          "name": "approved",
          "type": "address"
        },
        {
          "indexed": true,
          "internalType": "uint256",
          "name": "tokenId",
          "type": "uint256"
        }
      ],
      "name": "Approval",
      "type": "event"
    },
    {
      "anonymous": false,
      "inputs": [
        {
          "indexed": true,
          "internalType": "address",
          "name": "owner",
          "type": "address"
        },
        {
          "indexed": true,
          "internalType": "address",
          "name": "operator",
          "type": "address"
        },
        {
          "indexed": false,
          "internalType": "bool",
          "name": "approved",
          "type": "bool"
        }
      ],
      "name": "ApprovalForAll",
      "type": "event"
    },
    {
      "anonymous": false,
      "inputs": [
        {
          "indexed": true,
          "internalType": "address",
          "name": "from",
          "type": "address"
        },
        {
          "indexed": true,
          "internalType": "address",
          "name": "to",
          "type": "address"
        },
        {
          "indexed": true,
          "internalType": "uint256",
          "name": "tokenId",
          "type": "uint256"
        }
      ],
      "name": "Transfer",
      "type": "event"
    },
    {
      "inputs": [
        {
          "internalType": "address",
          "name": "_sale",
          "type": "address"
        }
      ],
      "name": "addSaleContract",
      "outputs": [],
      "stateMutability": "nonpayable",
      "type": "function"
    },
    {
      "inputs": [
        {
          "internalType": "address",
          "name": "to",
          "type": "address"
        },
        {
          "internalType": "uint256",
          "name": "tokenId",
          "type": "uint256"
        }
      ],
      "name": "approve",
      "outputs": [],
      "stateMutability": "nonpayable",
      "type": "function"
    },
    {
      "inputs": [
        {
          "internalType": "address",
          "name": "owner",
          "type": "address"
        }
      ],
      "name": "balanceOf",
      "outputs": [
        {
          "internalType": "uint256",
          "name": "",
          "type": "uint256"
        }
      ],
      "stateMutability": "view",
      "type": "function"
    },
    {
      "inputs": [
        {
          "internalType": "uint256",
          "name": "tokenId",
          "type": "uint256"
        }
      ],
      "name": "burn",
      "outputs": [],
      "stateMutability": "nonpayable",
      "type": "function"
    },
    {
      "inputs": [],
      "name": "currentSupply",
      "outputs": [
        {
          "internalType": "uint256",
          "name": "",
          "type": "uint256"
        }
      ],
      "stateMutability": "view",
      "type": "function"
    },
    {
      "inputs": [
        {
          "internalType": "uint256",
          "name": "tokenId",
          "type": "uint256"
        }
      ],
      "name": "getApproved",
      "outputs": [
        {
          "internalType": "address",
          "name": "",
          "type": "address"
        }
      ],
      "stateMutability": "view",
      "type": "function"
    },
    {
      "inputs": [
        {
          "internalType": "address",
          "name": "owner",
          "type": "address"
        },
        {
          "internalType": "address",
          "name": "operator",
          "type": "address"
        }
      ],
      "name": "isApprovedForAll",
      "outputs": [
        {
          "internalType": "bool",
          "name": "",
          "type": "bool"
        }
      ],
      "stateMutability": "view",
      "type": "function"
    },
    {
      "inputs": [
        {
          "internalType": "address",
          "name": "to",
          "type": "address"
        }
      ],
      "name": "mint",
      "outputs": [
        {
          "internalType": "uint256",
          "name": "",
          "type": "uint256"
        }
      ],
      "stateMutability": "nonpayable",
      "type": "function"
    },
    {
      "inputs": [],
      "name": "name",
      "outputs": [
        {
          "internalType": "string",
          "name": "",
          "type": "string"
        }
      ],
      "stateMutability": "view",
      "type": "function"
    },
    {
      "inputs": [
        {
          "internalType": "uint256",
          "name": "tokenId",
          "type": "uint256"
        }
      ],
      "name": "ownerOf",
      "outputs": [
        {
          "internalType": "address",
          "name": "",
          "type": "address"
        }
      ],
      "stateMutability": "view",
      "type": "function"
    },
    {
      "inputs": [
        {
          "internalType": "uint256",
          "name": "",
          "type": "uint256"
        }
      ],
      "name": "ranks",
      "outputs": [
        {
          "internalType": "uint256",
          "name": "",
          "type": "uint256"
        }
      ],
      "stateMutability": "view",
      "type": "function"
    },
    {
      "inputs": [
        {
          "internalType": "address",
          "name": "_sale",
          "type": "address"
        }
      ],
      "name": "removeSaleContract",
      "outputs": [],
      "stateMutability": "nonpayable",
      "type": "function"
    },
    {
      "inputs": [
        {
          "internalType": "address",
          "name": "from",
          "type": "address"
        },
        {
          "internalType": "address",
          "name": "to",
          "type": "address"
        },
        {
          "internalType": "uint256",
          "name": "tokenId",
          "type": "uint256"
        }
      ],
      "name": "safeTransferFrom",
      "outputs": [],
      "stateMutability": "nonpayable",
      "type": "function"
    },
    {
      "inputs": [
        {
          "internalType": "address",
          "name": "from",
          "type": "address"
        },
        {
          "internalType": "address",
          "name": "to",
          "type": "address"
        },
        {
          "internalType": "uint256",
          "name": "tokenId",
          "type": "uint256"
        },
        {
          "internalType": "bytes",
          "name": "_data",
          "type": "bytes"
        }
      ],
      "name": "safeTransferFrom",
      "outputs": [],
      "stateMutability": "nonpayable",
      "type": "function"
    },
    {
      "inputs": [
        {
          "internalType": "address",
          "name": "",
          "type": "address"
        }
      ],
      "name": "sales",
      "outputs": [
        {
          "internalType": "bool",
          "name": "",
          "type": "bool"
        }
      ],
      "stateMutability": "view",
      "type": "function"
    },
    {
      "inputs": [
        {
          "internalType": "address",
          "name": "operator",
          "type": "address"
        },
        {
          "internalType": "bool",
          "name": "approved",
          "type": "bool"
        }
      ],
      "name": "setApprovalForAll",
      "outputs": [],
      "stateMutability": "nonpayable",
      "type": "function"
    },
    {
      "inputs": [
        {
          "internalType": "uint256",
          "name": "nftId",
          "type": "uint256"
        },
        {
          "internalType": "uint256",
          "name": "rank",
          "type": "uint256"
        }
      ],
      "name": "setRank",
      "outputs": [],
      "stateMutability": "nonpayable",
      "type": "function"
    },
    {
      "inputs": [
        {
          "internalType": "bytes4",
          "name": "interfaceId",
          "type": "bytes4"
        }
      ],
      "name": "supportsInterface",
      "outputs": [
        {
          "internalType": "bool",
          "name": "",
          "type": "bool"
        }
      ],
      "stateMutability": "view",
      "type": "function"
    },
    {
      "inputs": [],
      "name": "symbol",
      "outputs": [
        {
          "internalType": "string",
          "name": "",
          "type": "string"
        }
      ],
      "stateMutability": "view",
      "type": "function"
    },
    {
      "inputs": [
        {
          "internalType": "uint256",
          "name": "tokenId",
          "type": "uint256"
        }
      ],
      "name": "tokenURI",
      "outputs": [
        {
          "internalType": "string",
          "name": "",
          "type": "string"
        }
      ],
      "stateMutability": "view",
      "type": "function"
    },
    {
      "inputs": [
        {
          "internalType": "address",
          "name": "from",
          "type": "address"
        },
        {
          "internalType": "address",
          "name": "to",
          "type": "address"
        },
        {
          "internalType": "uint256",
          "name": "tokenId",
          "type": "uint256"
        }
      ],
      "name": "transferFrom",
      "outputs": [],
      "stateMutability": "nonpayable",
      "type": "function"
    }
  ],
  "bytecode": "0x60806040523480156200001157600080fd5b5060405162001974380380620019748339810160408190526200003491620001f8565b8151829082906200004d90600090602085019062000085565b5080516200006390600190602084019062000085565b5050600780546001600160a01b0319163317905550506000600655506200029f565b828054620000939062000262565b90600052602060002090601f016020900481019282620000b7576000855562000102565b82601f10620000d257805160ff191683800117855562000102565b8280016001018555821562000102579182015b8281111562000102578251825591602001919060010190620000e5565b506200011092915062000114565b5090565b5b8082111562000110576000815560010162000115565b634e487b7160e01b600052604160045260246000fd5b600082601f8301126200015357600080fd5b81516001600160401b03808211156200017057620001706200012b565b604051601f8301601f19908116603f011681019082821181831017156200019b576200019b6200012b565b81604052838152602092508683858801011115620001b857600080fd5b600091505b83821015620001dc5785820183015181830184015290820190620001bd565b83821115620001ee5760008385830101525b9695505050505050565b600080604083850312156200020c57600080fd5b82516001600160401b03808211156200022457600080fd5b620002328683870162000141565b935060208501519150808211156200024957600080fd5b50620002588582860162000141565b9150509250929050565b600181811c908216806200027757607f821691505b602082108114156200029957634e487b7160e01b600052602260045260246000fd5b50919050565b6116c580620002af6000396000f3fe608060405234801561001057600080fd5b50600436106101075760003560e01c806301ffc9a71461010c57806306fdde0314610134578063081812fc14610149578063095ea7b3146101745780630c2f2be71461018957806323b872dd1461019c57806342842e0e146101af57806342966c68146101c2578063563970dc146101d55780636352211e146101e85780636461ac6f146101fb5780636a6278421461020e57806370a082311461022f578063771282f61461024257806395d89b411461024b578063a22cb46514610253578063b88d4fde14610266578063c6b9f06a14610279578063c87b56dd1461029c578063df927bbe146102af578063e985e9c5146102cf575b600080fd5b61011f61011a366004611167565b6102e2565b60405190151581526020015b60405180910390f35b61013c610334565b60405161012b91906111dc565b61015c6101573660046111ef565b6103c6565b6040516001600160a01b03909116815260200161012b565b61018761018236600461121f565b610453565b005b610187610197366004611249565b610564565b6101876101aa36600461126b565b6105e9565b6101876101bd36600461126b565b61061a565b6101876101d03660046111ef565b610635565b6101876101e33660046112a7565b610685565b61015c6101f63660046111ef565b6106c0565b6101876102093660046112a7565b610737565b61022161021c3660046112a7565b61076f565b60405190815260200161012b565b61022161023d3660046112a7565b6107de565b61022160065481565b61013c610865565b6101876102613660046112c2565b610874565b610187610274366004611314565b610883565b61011f6102873660046112a7565b60096020526000908152604090205460ff1681565b61013c6102aa3660046111ef565b6108bb565b6102216102bd3660046111ef565b60086020526000908152604090205481565b61011f6102dd3660046113ef565b610993565b60006001600160e01b031982166380ac58cd60e01b148061031357506001600160e01b03198216635b5e139f60e01b145b8061032e57506301ffc9a760e01b6001600160e01b03198316145b92915050565b60606000805461034390611422565b80601f016020809104026020016040519081016040528092919081815260200182805461036f90611422565b80156103bc5780601f10610391576101008083540402835291602001916103bc565b820191906000526020600020905b81548152906001019060200180831161039f57829003601f168201915b5050505050905090565b60006103d1826109c1565b6104375760405162461bcd60e51b815260206004820152602c60248201527f4552433732313a20617070726f76656420717565727920666f72206e6f6e657860448201526b34b9ba32b73a103a37b5b2b760a11b60648201526084015b60405180910390fd5b506000908152600460205260409020546001600160a01b031690565b600061045e826106c0565b9050806001600160a01b0316836001600160a01b031614156104cc5760405162461bcd60e51b815260206004820152602160248201527f4552433732313a20617070726f76616c20746f2063757272656e74206f776e656044820152603960f91b606482015260840161042e565b336001600160a01b03821614806104e857506104e88133610993565b6105555760405162461bcd60e51b815260206004820152603860248201527f4552433732313a20617070726f76652063616c6c6572206973206e6f74206f776044820152771b995c881b9bdc88185c1c1c9bdd995908199bdc88185b1b60421b606482015260840161042e565b61055f83836109de565b505050565b3360009081526009602052604090205460ff168061058c57506007546001600160a01b031633145b6105a85760405162461bcd60e51b815260040161042e9061145d565b3360009081526009602052604090205460ff166105d75760405162461bcd60e51b815260040161042e9061145d565b60009182526008602052604090912055565b6105f33382610a4c565b61060f5760405162461bcd60e51b815260040161042e9061148f565b61055f838383610b16565b61055f83838360405180602001604052806000815250610883565b3360009081526009602052604090205460ff168061065d57506007546001600160a01b031633145b6106795760405162461bcd60e51b815260040161042e9061145d565b61068281610ca0565b50565b6007546001600160a01b0316331461069c57600080fd5b6001600160a01b03166000908152600960205260409020805460ff19166001179055565b6000818152600260205260408120546001600160a01b03168061032e5760405162461bcd60e51b815260206004820152602960248201527f4552433732313a206f776e657220717565727920666f72206e6f6e657869737460448201526832b73a103a37b5b2b760b91b606482015260840161042e565b6007546001600160a01b0316331461074e57600080fd5b6001600160a01b03166000908152600960205260409020805460ff19169055565b3360009081526009602052604081205460ff168061079757506007546001600160a01b031633145b6107b35760405162461bcd60e51b815260040161042e9061145d565b600680549060006107c3836114f6565b91905055506107d482600654610d29565b506006545b919050565b60006001600160a01b0382166108495760405162461bcd60e51b815260206004820152602a60248201527f4552433732313a2062616c616e636520717565727920666f7220746865207a65604482015269726f206164647265737360b01b606482015260840161042e565b506001600160a01b031660009081526003602052604090205490565b60606001805461034390611422565b61087f338383610e49565b5050565b61088d3383610a4c565b6108a95760405162461bcd60e51b815260040161042e9061148f565b6108b584848484610f14565b50505050565b60606108c6826109c1565b61092a5760405162461bcd60e51b815260206004820152602f60248201527f4552433732314d657461646174613a2055524920717565727920666f72206e6f60448201526e3732bc34b9ba32b73a103a37b5b2b760891b606482015260840161042e565b600061094160408051602081019091526000815290565b90506000815111610961576040518060200160405280600081525061098c565b8061096b84610f47565b60405160200161097c929190611511565b6040516020818303038152906040525b9392505050565b6001600160a01b03918216600090815260056020908152604080832093909416825291909152205460ff1690565b6000908152600260205260409020546001600160a01b0316151590565b600081815260046020526040902080546001600160a01b0319166001600160a01b0384169081179091558190610a13826106c0565b6001600160a01b03167f8c5be1e5ebec7d5bd14f71427d1e84f3dd0314c0f7b2291e5b200ac8c7c3b92560405160405180910390a45050565b6000610a57826109c1565b610ab85760405162461bcd60e51b815260206004820152602c60248201527f4552433732313a206f70657261746f7220717565727920666f72206e6f6e657860448201526b34b9ba32b73a103a37b5b2b760a11b606482015260840161042e565b6000610ac3836106c0565b9050806001600160a01b0316846001600160a01b03161480610aea5750610aea8185610993565b80610b0e5750836001600160a01b0316610b03846103c6565b6001600160a01b0316145b949350505050565b826001600160a01b0316610b29826106c0565b6001600160a01b031614610b8d5760405162461bcd60e51b815260206004820152602560248201527f4552433732313a207472616e736665722066726f6d20696e636f72726563742060448201526437bbb732b960d91b606482015260840161042e565b6001600160a01b038216610bef5760405162461bcd60e51b8152602060048201526024808201527f4552433732313a207472616e7366657220746f20746865207a65726f206164646044820152637265737360e01b606482015260840161042e565b610bfa6000826109de565b6001600160a01b0383166000908152600360205260408120805460019290610c23908490611540565b90915550506001600160a01b0382166000908152600360205260408120805460019290610c51908490611557565b909155505060008181526002602052604080822080546001600160a01b0319166001600160a01b03868116918217909255915184939187169160008051602061167083398151915291a4505050565b6000610cab826106c0565b9050610cb86000836109de565b6001600160a01b0381166000908152600360205260408120805460019290610ce1908490611540565b909155505060008281526002602052604080822080546001600160a01b0319169055518391906001600160a01b03841690600080516020611670833981519152908390a45050565b6001600160a01b038216610d7f5760405162461bcd60e51b815260206004820181905260248201527f4552433732313a206d696e7420746f20746865207a65726f2061646472657373604482015260640161042e565b610d88816109c1565b15610dd45760405162461bcd60e51b815260206004820152601c60248201527b115490cdcc8c4e881d1bdad95b88185b1c9958591e481b5a5b9d195960221b604482015260640161042e565b6001600160a01b0382166000908152600360205260408120805460019290610dfd908490611557565b909155505060008181526002602052604080822080546001600160a01b0319166001600160a01b0386169081179091559051839290600080516020611670833981519152908290a45050565b816001600160a01b0316836001600160a01b03161415610ea75760405162461bcd60e51b815260206004820152601960248201527822a9219b99189d1030b8383937bb32903a379031b0b63632b960391b604482015260640161042e565b6001600160a01b03838116600081815260056020908152604080832094871680845294825291829020805460ff191686151590811790915591519182527f17307eab39ab6107e8899845ad3d59bd9653f200f220920489ca2b5937696c31910160405180910390a3505050565b610f1f848484610b16565b610f2b84848484611044565b6108b55760405162461bcd60e51b815260040161042e9061156f565b606081610f6b5750506040805180820190915260018152600360fc1b602082015290565b8160005b8115610f955780610f7f816114f6565b9150610f8e9050600a836115d7565b9150610f6f565b6000816001600160401b03811115610faf57610faf6112fe565b6040519080825280601f01601f191660200182016040528015610fd9576020820181803683370190505b5090505b8415610b0e57610fee600183611540565b9150610ffb600a866115eb565b611006906030611557565b60f81b81838151811061101b5761101b6115ff565b60200101906001600160f81b031916908160001a90535061103d600a866115d7565b9450610fdd565b60006001600160a01b0384163b1561114657604051630a85bd0160e11b81526001600160a01b0385169063150b7a0290611088903390899088908890600401611615565b602060405180830381600087803b1580156110a257600080fd5b505af19250505080156110d2575060408051601f3d908101601f191682019092526110cf91810190611652565b60015b61112c573d808015611100576040519150601f19603f3d011682016040523d82523d6000602084013e611105565b606091505b5080516111245760405162461bcd60e51b815260040161042e9061156f565b805181602001fd5b6001600160e01b031916630a85bd0160e11b149050610b0e565b506001949350505050565b6001600160e01b03198116811461068257600080fd5b60006020828403121561117957600080fd5b813561098c81611151565b60005b8381101561119f578181015183820152602001611187565b838111156108b55750506000910152565b600081518084526111c8816020860160208601611184565b601f01601f19169290920160200192915050565b60208152600061098c60208301846111b0565b60006020828403121561120157600080fd5b5035919050565b80356001600160a01b03811681146107d957600080fd5b6000806040838503121561123257600080fd5b61123b83611208565b946020939093013593505050565b6000806040838503121561125c57600080fd5b50508035926020909101359150565b60008060006060848603121561128057600080fd5b61128984611208565b925061129760208501611208565b9150604084013590509250925092565b6000602082840312156112b957600080fd5b61098c82611208565b600080604083850312156112d557600080fd5b6112de83611208565b9150602083013580151581146112f357600080fd5b809150509250929050565b634e487b7160e01b600052604160045260246000fd5b6000806000806080858703121561132a57600080fd5b61133385611208565b935061134160208601611208565b92506040850135915060608501356001600160401b038082111561136457600080fd5b818701915087601f83011261137857600080fd5b81358181111561138a5761138a6112fe565b604051601f8201601f19908116603f011681019083821181831017156113b2576113b26112fe565b816040528281528a60208487010111156113cb57600080fd5b82602086016020830137600060208483010152809550505050505092959194509250565b6000806040838503121561140257600080fd5b61140b83611208565b915061141960208401611208565b90509250929050565b600181811c9082168061143657607f821691505b6020821081141561145757634e487b7160e01b600052602260045260246000fd5b50919050565b6020808252601890820152771bdb9b1e48185d5d1a1bdc9a5e99590818dbdb9d1c9858dd60421b604082015260600190565b60208082526031908201527f4552433732313a207472616e736665722063616c6c6572206973206e6f74206f6040820152701ddb995c881b9bdc88185c1c1c9bdd9959607a1b606082015260800190565b634e487b7160e01b600052601160045260246000fd5b600060001982141561150a5761150a6114e0565b5060010190565b60008351611523818460208801611184565b835190830190611537818360208801611184565b01949350505050565b600082821015611552576115526114e0565b500390565b6000821982111561156a5761156a6114e0565b500190565b60208082526032908201527f4552433732313a207472616e7366657220746f206e6f6e20455243373231526560408201527131b2b4bb32b91034b6b83632b6b2b73a32b960711b606082015260800190565b634e487b7160e01b600052601260045260246000fd5b6000826115e6576115e66115c1565b500490565b6000826115fa576115fa6115c1565b500690565b634e487b7160e01b600052603260045260246000fd5b6001600160a01b0385811682528416602082015260408101839052608060608201819052600090611648908301846111b0565b9695505050505050565b60006020828403121561166457600080fd5b815161098c8161115156feddf252ad1be2c89b69c2b068fc378daa952ba7f163c4a11628f55a4df523b3efa264697066735822122054489452368c135868e19949bee450f7e4770e95b84b4deacb02d33d9f69a9b964736f6c63430008080033",
  "linkReferences": {},
  "deployedLinkReferences": {}
}