{
  "_format": "hh-sol-artifact-1",
  "contractName": "VRFv2Consumer",
  "sourceName": "contracts/VRFv2Consumer.sol",
  "abi": [
    {
      "inputs": [
        {
          "internalType": "uint64",
          "name": "subscriptionId",
          "type": "uint64"
        }
      ],
      "stateMutability": "nonpayable",
      "type": "constructor"
    },
    {
      "inputs": [
        {
          "internalType": "address",
          "name": "have",
          "type": "address"
        },
        {
          "internalType": "address",
          "name": "want",
          "type": "address"
        }
      ],
      "name": "OnlyCoordinatorCanFulfill",
      "type": "error"
    },
    {
      "inputs": [
        {
          "internalType": "address[]",
          "name": "_recipients",
          "type": "address[]"
        },
        {
          "internalType": "uint256[]",
          "name": "_amounts",
          "type": "uint256[]"
        }
      ],
      "name": "addRecipient",
      "outputs": [],
      "stateMutability": "nonpayable",
      "type": "function"
    },
    {
      "inputs": [
        {
          "internalType": "uint256",
          "name": "requestId",
          "type": "uint256"
        },
        {
          "internalType": "uint256[]",
          "name": "randomWords",
          "type": "uint256[]"
        }
      ],
      "name": "fulfillRandomWordsTest",
      "outputs": [],
      "stateMutability": "nonpayable",
      "type": "function"
    },
    {
      "inputs": [],
      "name": "mintNtf",
      "outputs": [],
      "stateMutability": "nonpayable",
      "type": "function"
    },
    {
      "inputs": [
        {
          "internalType": "uint256",
          "name": "s_requestId",
          "type": "uint256"
        }
      ],
      "name": "mintNtfTest",
      "outputs": [],
      "stateMutability": "nonpayable",
      "type": "function"
    },
    {
      "inputs": [],
      "name": "nftAddress",
      "outputs": [
        {
          "internalType": "address",
          "name": "",
          "type": "address"
        }
      ],
      "stateMutability": "view",
      "type": "function"
    },
    {
      "inputs": [
        {
          "internalType": "uint256",
          "name": "requestId",
          "type": "uint256"
        },
        {
          "internalType": "uint256[]",
          "name": "randomWords",
          "type": "uint256[]"
        }
      ],
      "name": "rawFulfillRandomWords",
      "outputs": [],
      "stateMutability": "nonpayable",
      "type": "function"
    },
    {
      "inputs": [
        {
          "internalType": "address",
          "name": "",
          "type": "address"
        }
      ],
      "name": "recipients",
      "outputs": [
        {
          "internalType": "uint256",
          "name": "",
          "type": "uint256"
        }
      ],
      "stateMutability": "view",
      "type": "function"
    },
    {
      "inputs": [
        {
          "internalType": "address[]",
          "name": "_recipients",
          "type": "address[]"
        }
      ],
      "name": "removeRecipient",
      "outputs": [],
      "stateMutability": "nonpayable",
      "type": "function"
    },
    {
      "inputs": [
        {
          "internalType": "uint256",
          "name": "",
          "type": "uint256"
        }
      ],
      "name": "requestToNftId",
      "outputs": [
        {
          "internalType": "uint256",
          "name": "",
          "type": "uint256"
        }
      ],
      "stateMutability": "view",
      "type": "function"
    },
    {
      "inputs": [
        {
          "internalType": "address",
          "name": "",
          "type": "address"
        }
      ],
      "name": "salesContracts",
      "outputs": [
        {
          "internalType": "bool",
          "name": "",
          "type": "bool"
        }
      ],
      "stateMutability": "view",
      "type": "function"
    },
    {
      "inputs": [
        {
          "internalType": "address",
          "name": "_nftAddress",
          "type": "address"
        }
      ],
      "name": "setNft",
      "outputs": [],
      "stateMutability": "nonpayable",
      "type": "function"
    },
    {
      "inputs": [
        {
          "internalType": "address",
          "name": "_salesContract",
          "type": "address"
        },
        {
          "internalType": "bool",
          "name": "_status",
          "type": "bool"
        }
      ],
      "name": "setSalesContract",
      "outputs": [],
      "stateMutability": "nonpayable",
      "type": "function"
    }
  ],
  "bytecode": "0x60a0604052600180546001600160a01b03191673c587d9053cd1118f25f645f9e08bb98c9712a4ee1790557fba6e730de88d94a5510ae6613898bfb0c3de5d16e609c5b7da808747125506f76002556003805466010003000186a06001600160501b031990911617905534801561007557600080fd5b50604051610ca1380380610ca183398101604081905261009491610108565b6001546001600160601b0319606082901b1660805260008054600380546a01000000000000000000003302600160501b600160f01b03199091161790556001600160401b03909316600160a01b026001600160e01b03199093166001600160a01b0390921691909117919091179055610138565b60006020828403121561011a57600080fd5b81516001600160401b038116811461013157600080fd5b9392505050565b60805160601c610b4461015d60003960008181610429015261046b0152610b446000f3fe608060405234801561001057600080fd5b50600436106100a45760003560e01c80631da5a197146100a95780631da5fefa146100be5780631fe543e3146100c657806342cbc088146100d95780634441f96c146100ec5780635697c32b146100ff5780635bf8633a14610132578063ab287caf14610152578063e221d7a014610185578063ea471b6c14610198578063eb820312146101ab578063f3c13387146101cb575b600080fd5b6100bc6100b736600461077b565b6101de565b005b6100bc6102d2565b6100bc6100d4366004610868565b61041e565b6100bc6100e736600461092c565b6104a6565b6100bc6100fa366004610985565b61055e565b61011f61010d36600461077b565b60066020526000908152604090205481565b6040519081526020015b60405180910390f35b600454610145906001600160a01b031681565b60405161012991906109c1565b6101756101603660046109d5565b60076020526000908152604090205460ff1681565b6040519015158152602001610129565b6100bc610193366004610868565b6105a7565b6100bc6101a63660046109f7565b6106a0565b61011f6101b93660046109d5565b60056020526000908152604090205481565b6100bc6101d93660046109d5565b61073b565b336000908152600560205260409020546102135760405162461bcd60e51b815260040161020a90610a33565b60405180910390fd5b336000908152600560205260408120805460019290610233908490610a73565b9091555050600480546040516335313c2160e11b81526000926001600160a01b0390921691636a6278429161026a913391016109c1565b602060405180830381600087803b15801561028457600080fd5b505af1158015610298573d6000803e3d6000fd5b505050506040513d601f19601f820116820180604052508101906102bc9190610a8a565b6000928352600660205260409092209190915550565b336000908152600560205260409020546102fe5760405162461bcd60e51b815260040161020a90610a33565b33600090815260056020526040812080546001929061031e908490610a73565b9091555050600080546002546003546040516305d3b1d360e41b81526004810192909252600160a01b83046001600160401b03166024830152600160201b810461ffff16604483015263ffffffff8082166064840152600160301b9091041660848201526001600160a01b0390911690635d3b1d309060a401602060405180830381600087803b1580156103b157600080fd5b505af11580156103c5573d6000803e3d6000fd5b505050506040513d601f19601f820116820180604052508101906103e99190610a8a565b600480546040516335313c2160e11b81529293506000926001600160a01b0390911691636a6278429161026a913391016109c1565b336001600160a01b037f000000000000000000000000000000000000000000000000000000000000000016146104985760405163073e64fd60e21b81523360048201526001600160a01b037f000000000000000000000000000000000000000000000000000000000000000016602482015260440161020a565b6104a282826105a7565b5050565b600354600160501b90046001600160a01b03163314806104d557503360009081526007602052604090205460ff165b6104de57600080fd5b60005b8251811015610559578181815181106104fc576104fc610aa3565b60200260200101516005600085848151811061051a5761051a610aa3565b60200260200101516001600160a01b03166001600160a01b0316815260200190815260200160002081905550808061055190610ab9565b9150506104e1565b505050565b600354600160501b90046001600160a01b0316331461057c57600080fd5b6001600160a01b03919091166000908152600760205260409020805460ff1916911515919091179055565b60006103e8826000815181106105bf576105bf610aa3565b60200260200101516105d19190610ad4565b6105dc906001610af6565b9050600060058210156105f157506005610629565b602882101561060257506004610629565b609682101561061357506003610629565b6101f482101561062557506002610629565b5060015b6004805460008681526006602052604090819020549051630c2f2be760e01b815292830152602482018390526001600160a01b031690630c2f2be790604401600060405180830381600087803b15801561068257600080fd5b505af1158015610696573d6000803e3d6000fd5b5050505050505050565b600354600160501b90046001600160a01b03163314806106cf57503360009081526007602052604090205460ff165b6106d857600080fd5b60005b81518110156104a2576000600560008484815181106106fc576106fc610aa3565b60200260200101516001600160a01b03166001600160a01b0316815260200190815260200160002081905550808061073390610ab9565b9150506106db565b600354600160501b90046001600160a01b0316331461075957600080fd5b600480546001600160a01b0319166001600160a01b0392909216919091179055565b60006020828403121561078d57600080fd5b5035919050565b634e487b7160e01b600052604160045260246000fd5b604051601f8201601f191681016001600160401b03811182821017156107d2576107d2610794565b604052919050565b60006001600160401b038211156107f3576107f3610794565b5060051b60200190565b600082601f83011261080e57600080fd5b8135602061082361081e836107da565b6107aa565b82815260059290921b8401810191818101908684111561084257600080fd5b8286015b8481101561085d5780358352918301918301610846565b509695505050505050565b6000806040838503121561087b57600080fd5b8235915060208301356001600160401b0381111561089857600080fd5b6108a4858286016107fd565b9150509250929050565b80356001600160a01b03811681146108c557600080fd5b919050565b600082601f8301126108db57600080fd5b813560206108eb61081e836107da565b82815260059290921b8401810191818101908684111561090a57600080fd5b8286015b8481101561085d5761091f816108ae565b835291830191830161090e565b6000806040838503121561093f57600080fd5b82356001600160401b038082111561095657600080fd5b610962868387016108ca565b9350602085013591508082111561097857600080fd5b506108a4858286016107fd565b6000806040838503121561099857600080fd5b6109a1836108ae565b9150602083013580151581146109b657600080fd5b809150509250929050565b6001600160a01b0391909116815260200190565b6000602082840312156109e757600080fd5b6109f0826108ae565b9392505050565b600060208284031215610a0957600080fd5b81356001600160401b03811115610a1f57600080fd5b610a2b848285016108ca565b949350505050565b60208082526010908201526f139bdd081a5b881dda1a5d195b1a5cdd60821b604082015260600190565b634e487b7160e01b600052601160045260246000fd5b600082821015610a8557610a85610a5d565b500390565b600060208284031215610a9c57600080fd5b5051919050565b634e487b7160e01b600052603260045260246000fd5b6000600019821415610acd57610acd610a5d565b5060010190565b600082610af157634e487b7160e01b600052601260045260246000fd5b500690565b60008219821115610b0957610b09610a5d565b50019056fea2646970667358221220e847455b611e8684a5abfac1b0b12bc1f7df8fb70457a84f2f438f7ecb32cc0564736f6c63430008080033",
  "linkReferences": {},
  "deployedLinkReferences": {}
}